:400000000080002011000000991100009911000008B5044B1A6803F53F5302331A6001F0DBF800BFFA46004010B5054C237833B9044B13B10448AFF300800123237010BD4F
:400040006085FF1F000000008C400000084B10B51BB108490848AFF300800848036803B910BD074B002BFBD0BDE81040184700BF000000006485FF1F8C400000C880FF1F32
:400080000000000070B582B062B600F09FF801F02BF9444801F0C8FC3D2000F02BFD01F0D7FC02F0F1F902F0B7F902F0E7FA02F0ADFA02F015F801F0E3FF3B4802F052F840
:4000C0003A4802F095FA3A4802F098F9052001F01DFC002001F028FD01F040FD012001F023FD01F053FD022001F01EFD01F042FD042001F019FD2F4C54F82060042001F00D
:4001000013FD04EB8000816828220192232500951423304600F002F900222E21182000F0ABF8254C207002222221182000F0A4F82070062001F0F8FC0246204B1870294658
:40014000182000F099F8207040222421182000F093F82070072001F0E7FC194B1A7802401A702021182000F087F8207047222021182000F081F82070124801F02DFC802226
:400180002E21182000F078F8207001F0C3FF0A2001F096FF01F0D8FE02F0FCFA01220A4B1A60FEE795040000A9020000C902000079030000CC80FF1F3786FF1F2586FF1F46
:4001C0002486FF1FE10200003886FF1F08B501F027F9002008BD00BFF8B506460D461746002101F099FA044668B9284601F026FB044640B90121304601F0CEFA044610B926
:4002000001F048FB387001F0FDFA201C18BF0120F8BD00BF2DE9F04180460C4616461F46002101F079FA0546F0B944F0800001F005FB0546C0B90121404601F0ADFA0546C5
:4002400050B111E0C4EB0608012001F023FB07F80800013CE4B200E03446012CF2D8013E002001F017FBB85501F0CCFA281C18BF0120BDE8F08100BF70B50D461646002148
:4002800001F04AFA044640B9284601F0D7FA044618B9304601F0D2FA044601F0B3FA201C18BF012070BD00BF08B502F01BF902F0BBF802F0C7F80022024B1A6002F0F6F95D
:4002C00008BD00BF3886FF1F08B502F0A7F902F0B3F90122014B1A6008BD00BF3886FF1F10B50B4C2346C02228211820FFF792FF084B1870A02304F8013CC02384F8C030D3
:40030000054B1B781BB1C221601E01F02FF810BD4986FF1F3786FF1F0A87FF1FF8B505460C4616461F4600F09BFB00F0A7FB012000F006FC012000F00BFC0221372000F099
:40034000F9FB0C4800F092FD022000F0F9FB39B230B200F0EFFB284600F088FDBDF91C10BDF9180000F0E6FB204600F07FFD00F085FBF8BDB040000070B582B001F06AFE0E
:4003800001F054FE364E306002F028FD30A3D3E9002302F0C3FB0022324B02F073FD2EA3D3E9002302F098FE2F4C02F07DFF20602E4D72682E49284603F03CFA2D4E226863
:4003C0002D49304603F036FA2823019302220092142331462846FFF7A1FF01F05FFE2368042B31DC254B1B68012B2DD102F0D8F802F062F801F0ACFB214D01242C7005217A
:40040000204601F029FB1F4B1A7842F008021A7020211820FFF730FF1B4B18701B48A32303702B784370C3238370032100F09EFF1748A42303704470C4238370032100F03C
:4004400095FF00220D4B1A6002B070BDAFF300806666666666660A40343333333333FB3FE085FF1F00005940DC80FF1F0C87FF1FB44000003C86FF1FBC4000003886FF1FE5
:400480003086FF1F2486FF1F3786FF1F2886FF1F3486FF1F70B582B0824B1B7A23B900F031FF814B187002E06E227F4B1A707E4B1B78623B142B00F2F380DFE813F02B00C0
:4004C000F100F100F100F100A0006E00F100F1003D00F100F100CA00F1007200F100F1003400F100F10015000024704B1C7002F0F3F8204601F04AFB012001F03BFB6C4A0D
:400500006C4B03CB106051601B781372104600F01BFFC5E00120654B187001F037FB002001F028FBBCE00020604B187001F02EFB012001F01FFBB3E0052001F0F5FA5E4DD0
:400540006870062001F0F0FA5C4E7070072001F0EBFA5B4C6070A2233370C223B370A3232B70C323AB70A4232370C423A3700321304600F0FBFE052001F0C8F90321284692
:4005800000F0F4FE052001F0C1F90321204600F0EDFE052001F0BAF982E00122414B1A727EE0484C224620211820FFF715FE464B1870227812F0080F0CD002F0F7022270BD
:4005C00020211820FFF758FE3F4B187000223F4B1A700CE042F008023A4B1A7020211820FFF74AFE384B18700122384B1A7001F0AFFA0521354B187801F02EFA50E0344C2C
:40060000224623211820FFF7E7FD2F4B1870227812F0100F0AD000242D4B1C70224623211820FFF729FE2B4B1C700AE042F01002274B1A7023211820FFF71EFE0122254BEF
:400640001A7001F085FA0621224B187801F004FA26E000F057FE134B5860502807DD1E4B1B68012B03D101F09BFF01F025FF0D4C1A4D62681A49284603F0DCF8194E1A4B36
:400680001A681A49304603F0D5F82823019302220092142331462846FFF740FE0023237202B070BDE085FF1FDA87FF1F0A87FF1F7C85FF1FC84000002886FF1F2C86FF1F2F
:4006C0003486FF1F2486FF1F3786FF1F3086FF1F2586FF1F2F86FF1F3886FF1F0C87FF1FB44000003C86FF1FDC80FF1FBC40000083B27F2B3CD800293ADB3F2938DC012A60
:4007000003D09AB1022A23D070471A4A0B46002900DACB1DDB1000EBC31001F00701012303FA01F1135C194311547047114A0B46002900DACB1DDB1000EBC31001F0070150
:40074000012303FA01F1135C23EA010111547047084A0B46002900DACB1DDB1000EBC31001F00701012303FA01F1135C59401154704700BFE180FF1FF0B5BDF814409042A7
:4007800067D10D46002900DACD1DED1000EBC510444F07441846002B00DAD81DC01002EBC012404810443A4650E0BA4218D13E4D0D4003D5013D65F007050135EEB2F5189C
:4007C0006D1AEDB2062D00D90725AD1B01354FF0010E0EFA05F5013D05FA06F6F6B20EE082420CD1304D1D4003D5013D65F0070501352DB2012606FA05F56E1EF6B2BA4226
:4008000001D0824212D1012C03D034B1022C09D01BE015783543157017E0157825EA0605157012E01578754015700EE0012C03D02CB1022C06D008E0FF25157005E0002589
:40084000157002E01578ED43157080328242ACD9F0BD0B46002900DACB1DDB1000EBC313104D2B44121A1A4401F00701012000FA01F1CDB212E0012C03D034B1022C09D086
:400880000BE018782843187007E0187820EA0100187002E018786840187001339342EAD9F0BD00BFE180FF1F07000080B1F90020154B1B78022B0CD0032B19D0012B21D1E5
:4008C000B0F900300B80114B1B889A1A013A02807047B0F900200D4B1B889B1A013B0380B1F900200A4B1B889B1A013B0B80704710B4B0F90040064B1B881B1B013B0B80A2
:40090000028010BC704700BFDE87FF1FDC87FF1FE087FF1F10B584B0ADF80E00ADF80C10ADF80A20ADF80830904203D009B21BB2994271D1394B1B78012B01D0032B1AD1DA
:40094000002869DB364BB3F90030984264DA002A62DB9A4260DABDF90C30002B5CDB314AB2F90020934257DABDF90830002B53DB9A421ADC50E0BDF90C30002B4CDB28497B
:40098000B1F900108B4247DABDF90830002B43DB994241DD00283FDB224BB3F9003098423ADA002A38DB9A4236DA03A90DF10E00FFF77CFF02A90DF10A00FFF777FFBDF9BF
:4009C0000E30BDF90A20934205D1BDF90800BDF90C10884207DBBDF90C00BDF9081088420DD193420BDDADF80E20ADF80A30BDF90C30BDF80820ADF80C20ADF80830BDF918
:400A00000830BDF90A20BDF90C10BDF90E00BDF818400094FFF7B0FE04B010BDDE87FF1FE087FF1FDC87FF1FF8B507460E4600210A4B187800F070FE38B1FF2509E0385D7C
:400A400000F0FCFE0546013401E00024FF25B442F5DB00F0D7FE2846F8BD00BFEA85FF1F10B5054C4FF480620021601C02F0D9FE4023237010BD00BFE080FF1F00B583B060
:400A80000A4B186800909A889B79ADF804208DF8063007216846FFF7C7FF40F201410448FFF7C2FF03B05DF804FB00BFD4400000E080FF1F0A4B18800A4B19800A4B5880AE
:400AC0009980002209490A70DA801A8101229A724FF6FF719981D981054B1A70704700BFDC87FF1FE087FF1FEA85FF1FDE87FF1FE287FF1F30B589B00C4B187040218020B7
:400B0000FFF7D8FF01AC0A4D55F8080F6968AA68EB680FC42869696903C42B8B23801A2101A8FFF781FF09B030BD00BFEA85FF1FD4400000014BD88019817047EA85FF1F12
:400B400008B90120FFE7014B98727047EA85FF1F014B9881D8817047EA85FF1F10B582B0ADF80600ADF80410002819DB0D4BB3F90230984214DA0BB2002B11DB0949B1F9CC
:400B800004108B420CDA144601A90DF10600FFF78DFE2246BDF90410BDF90600FFF7A8FD02B010BDEA85FF1F2DE9F04F85B005460E461746BDF838200292B84201D0994283
:400BC00007D1029A00923A4631462846FFF7A2FE52E0C1EB0308B8F1000FB8BFC8F10008C0EB0709B9F1000FB8BFC9F10009C84504DD3A461F4613460D460646BD4205DDC1
:400C000032461E4613462A463D461746C5EB070B1FFA8BFB0FFA8BF4C6EB030ABAF1000FB8BFCAF1000A04EBD47464109E4202DA012303931EE04FF0FF3303931AE0C84565
:400C400005DD029A29463046FFF788FF04E0029A31462846FFF782FFCAEB0404A3B21CB2002C05DA039A164436B20BEB030424B201352DB2BD42E2DD05B0BDE8F08F00BFB0
:400C80002DE9F04383B005460E4617469846BDF8289093420FDC0C461EE006EB0803013BCDF800901BB2224631462046FFF77CFF013424B200E00446EB199C42EDDB0FE083
:400CC000EA19013ACDF80090234612B221462846FFF76AFF013424B206EB08039C42EFDB03B0BDE8F08300BF2DE9F04F85B0BDF838B09DF83C60364CB4F90240844263DDF8
:400D0000334CB4F904408C425EDD06EB46056C000444012C58D401EBC604012C54D4984603928A46814600274CE0052F08D0039B03EB83033B44274A134493F8245000E045
:400D4000002500243AE015F0010F19D0012E09D104EB0A0107EB0900424609B200B2FFF7FDFE28E0B0B232B204FB00A107FB0090CDF80080134609B200B2FFF781FF1AE033
:400D8000D84518D0012E09D104EB0A0107EB09005A4609B200B2FFF7E1FE0CE0B0B232B204FB00A107FB0090CDF800B0134609B200B2FFF765FF6D08013464B2072CC2DDC3
:400DC00001377FB2052FB0DD05B0BDE8F08F00BFEA85FF1FD44000000A2808D11A4B997A1A8902EBC1021A810022DA8070470D28FCD030B583B00246134CE389B4F90810FB
:400E0000B4F90600A57A0195A5890095FFF76CFFA27A91B201EB41035800E38803441BB2E3800A48007868B1A2EB82025000B4F902201044834205DD228902EBC101218153
:400E40000022E28003B030BDEA85FF1FE287FF1F70B5064602F012FD0546002403E0305DFFF7BAFF0134AC42F9D370BD08B5FFF7EFFF0A20FFF7B0FF08BD00BFFEE700BF86
:400E8000F0B40022174611E050F82760F3B226F0FF0608E001EB420511F812406D78A5550132013BDBB2002BF4D101371E2FEBD9F0BC70470A4B1B78DBB203F00701094ADF
:400EC00011701B09013213708023A2F26272137002F6F31213704422034B1A70704700BFCF0100496E5800407658004008B50A46002102F096FC08BD08B502F087FC08BD3A
:400F000038B500243C4B1C80502202331A70EF2202331A801823394A13704FF49C71023211800232137047F22F52354B1A80192502331D7040F2E73202331A801B233149B9
:400F40000B7002310A8002310B7002310A802E4A137004222D492E48FFF7CEFF02222D4B1A7008224FF040231A70032103F500731970294B1B78DBB228490B70284B1A80DD
:400F800041F25122023B1A800CE0264B1B7803F0010343EA440404F003044FF4F07001F007FC013D0DB1032CEFD115B90320FFF765FF1D4B4FF480721A8007221A70002284
:400FC0001A490A704820023108701A700222033B1A7004220A331A70154A137843F07F031370013A137843F001031370013A137843F08003137038BD804000408640004002
:401000008C400040924000409A400040EC060048004100400043004008010049A146004022420040254200400440004006400040A2430040012807D8044B53F82020184409
:40104000017A13780B431370704700BFF4450000012808D8044B53F820201844017A137823EA010313707047F445000038B572B6374A137843F00403137000240BE03548B7
:4010800063001A19510001440A46098AD068FFF72DFF0134E4B2072CF1D900240CE02D48A20011194B000344B3F84420196CD86BFFF722FF0134E4B2012CF0D926494FF0BF
:4010C0009040FFF7DDFE0A25244B1D70244A137843F0020313701032137843F002031370204C237843F040032370A2F58632513A137843F01003137008221B491B48FFF7C3
:40110000FBFE2A461A491B48FFF7F6FE08221A491A48FFF7F1FE082219491A48FFF7ECFE194A137843F008031370184D61232B70FFF7E6FE81232B700122154B1A70FFF7A5
:40114000B9FE0E2221461348FFF7D6FE38BD00BFE8460040F44500007C0000488358004003500140A0430040C806004802510040D0060048C0510040DC060048F251004046
:40118000E406004812510040224300400048004004000840B043004008B502F00BFB03680C2B00D1FEE7FEE708B5094B1A681044084BC31A802B02DC054B186005E002F07D
:4011C000F9FA0C2303604FF0FF32104608BD00BFE484FF1F0088FF1F08B5104E104D16E029686B68AC68002204E051F8040B43F8040B0432A242F8D1E868002203E000210D
:4012000043F8041B04328242F9D11035013E002EE6D102F0D5FAFEF735FFFEE701000000A046000008B5104A104B1A60104A136843F40073136000230AE0032B03D80D4A26
:4012400052F8231000E00C490C4A42F8231001332F2BF2D90A4B1A780A4B1A70074A0A4B1A60FFF703FF08BD0004FA050CED00E014ED00E000000000991100000080FF1FF8
:40128000BC760040C080FF1F08ED00E07222074B1A702022013B1A7006225D3B1A70472210331A7000224F331A7070478965004010B501F085FA04460A4A137843F02003CA
:4012C0001370013A137843F0100313700232137843F01003137000F009FB204601F074FA10BD00BF9965004008B5054B1B7823B9FFF7CCFF0122024B1A70FFF7D9FF08BD07
:40130000FA85FF1F084B1B78DBB213F0200F06D0064A1078C0B213F01E0F02D17047002070470020704700BF6865004049650040034B1B7813F0040FFAD1024B18707047DB
:401340006A6500404A65004038B5074B1B782BB938BDFFF7EDFF0134A4B201E005460024285D0028F5D138BDFA85FF1F084B1B7833B97047305DFFF7DBFF0134E4B203E06E
:4013800070B50D4606460024AC42F3D370BD00BFFA85FF1F10B50222114B1A7081220E3B1A70082202331A70042211331A70002401331C704FF400420A4B1A6021460F2018
:4013C00000F0D8FA08490F2000F0C0FA1022074B1A70074B1C70074B1C70074B1C7010BDD649004080E100E049140000E387FF1FF187FF1FE487FF1FE587FF1F08B501F0B0
:40140000DFF9064A137843F0040313701032137843F00403137001F0D7F908BDA543004008B5074B1B7823B9FFF7B4FF0122044B1A70FFF7E3FF4FF40042024B1A6008BDF8
:40144000FC85FF1F00E100E038B5A54B1C78A54B1B7813F0400F00F03A81E4B214F0010F00F01D819F4B1B78453B052B00F21481DFE813F006008200120112010600DF00D2
:4014800004F0DF0504F00A04082C42D1954B1B78DBB2452B35D1944B1B7813F0FF0F10D0924B1B681B78DBB2914A137004228C4B1A7001228F4B1A7046228A4B1A702C460D
:4014C000EDE08D4B1B7813F0020F0DD08B4A137843F00A0313706022824B1A704FF40042874B1A602C46DAE0864A137843F0100313701022844B1A700422023B1A702C46BC
:40150000CDE00022764B1A704A22764B1A702C46C5E00A2C2BD1794A137843F0A0031370754B1B7813F0020F14D06E4B1B7813F0080F01D0092300E00A23704A11780B439E
:4015400013706022674B1A704FF400426C4B1A602C46A4E06B4A137843F0100313701022694B1A700422023B1A702C4697E0002000F0CAF92C4692E014F0020F36D15D4BB4
:401580001A78D2B2584B1B78DBB29A4210D2594A1378DBB255490968CB5CDBB254490B7004214F4B197013780133DBB2137076E0514B1B7813F0020F0CD0504A137843F01A
:4015C0000A0313706022474B1A704FF400424C4B1A6064E04B4A137843F0100313701022494B1A700422023B1A7058E0424B1B7813F0020F0CD0414A137843F09A0313700C
:401600006022384B1A704FF400423D4B1A6046E03C4A137843F01003137010223A4B1A700422023B1A70354A137843F09003137035E0364A1378DBB2354908682C49097882
:40164000C9B2C15413780133DBB213701278D2B2304B1B78DBB29A4203D21022204B1A701DE0254B1B7813F0020F0CD0234A137843F00903137060221A4B1A704FF40042EA
:401680001F4B1A600BE01F4A137843F0100313700022134B1A7002E0002000F035F914F0200F1CD00F4B1B7813F0080F01D0012300E00223114A11780B431370114A1378B9
:4016C00003F0EF0313701022064B1A7038BD054B1B7813F0100F02D11022024B1A7038BDD7490040E387FF1FE687FF1FE887FF1FD8490040E587FF1FF087FF1FF187FF1F94
:4017000080E100E0D6490040D9490040E487FF1FEC87FF1FF287FF1F1A4B1B78DBB2102B29D1194B1B7813F0080F26D14FF40042164B1A604000C0B229B140F001004922AC
:40174000104B1A7002E045220E4B1A70104B1870012201331A700F4B1B7813F0010FFAD00C4B1B7803F00A030A2B08D11022054B1A7003207047022070470120704700201B
:40178000704700BFE387FF1FD949004080E100E0D8490040D7490040164B1B7813F0040F23D04000C0B229B140F001004922124B1A7002E04522104B1A70104B1870122276
:4017C00001331A700422023B1A700D4B1B7813F0010FFAD00A4B1B7803F00A030A2B06D11022054B1A7003207047022070470020704700BFD9490040E387FF1FD8490040E2
:40180000D74900400A4B1B7813F0040F0ED01023074A13700421023A1170064A1370064B1B7813F0210FFAD00020704702207047D9490040E387FF1FD7490040114B1B78E6
:4018400013F0040F1BD0104B18700422013B1A7046220E4B1A700E4B1B7813F0010FFAD00B4B1B7813F0020F04D16022074B1A70002070476022054B1A7003207047022025
:40188000704700BFD9490040D8490040E387FF1FD7490040114B1B7813F0040F1BD0104B1B78DBB2492B05D100220E4B1A704A220B4B1A700B4B1B7813F0010FFAD00A4BE6
:4018C0001B78DBB218B11021064A117004E06021034A117000E0002318467047D9490040E387FF1FD7490040D8490040054A137843F0040313701032137843F004031370E6
:40190000704700BFA243004001BE704710B5044605E0084B186800F04BFFA4F50044B4F5004FF6D8034B586800FB04F000F040FF10BD00BFE884FF1F08B5034B1B7A00FB15
:4019400003F000F035FF08BDE884FF1F70B504460E46074B1D681F2802D90020FFF7D4FF04F01F04103455F8240045F8246070BD08ED00E038B504460D46072902D9002018
:40198000FFF7C2FF1F2C02D90020FFF7BDFF04F01F0000F1604000F564406D01EDB2057038BD00BF014B1B68D864704708ED00E04001C0B2014B1870704700BF03E400E0AA
:4019C0000822014B1A60704700E100E00822014B1A60704780E100E010B50446FFF7F6FF2046FFF7DFFF0220FFF7E2FFFFF7E8FF10BD00BF014B1B685865704708ED00E0E9
:401A00004001C0B2014B1870704700BF05E400E02022014B1A60704700E100E02022014B1A60704780E100E010B50446FFF7F6FF2046FFF7DFFF0120FFF7E2FFFFF7E8FF57
:401A400010BD00BF08B500F019FF00F021FF08BD08B5FFF7F7FF08BD30B583B00C468DF8070000F055FFB4F5006F52D22509A4EB0514A4B200F0F8FF00284CD101230DF1E2
:401A800007022146402000F06FFF044607282FD1234B1B7813F0020FFAD0214B1B7813F0020F06D01E4B1B789B0805D04FF0FF3403E04FF0FF3400E00024E4B9194A5378AD
:401AC00012782946402000F08BFF072816D1144B1B7813F0020FFAD0114B1B7813F0020F0FD00F4B1B789B0810D04FF0FF340DE0012809D10AE04FF0FF3407E04FF0FF34C4
:401B000004E04FF0FF3401E04FF0FF3400F0D2FF02E0012400E00424204603B030BD00BF22470040F887FF1F38B5044600F048FE054600F0D7FE04F1804000F5004004783E
:401B4000E4B200F0DDFE284600F03EFE204638BD08B500F093FEC0B208BD00BF044A137803F0FD03400000F0020018431070704700510040044A137803F0DF03400100F0DB
:401B80002000184310707047F0510040044A137803F0EF03000100F01000184310707047F051004010B59DF80840012C51D1013809282ED8DFE800F0052D2D052D2D0F1922
:401BC0002D230F2B03D92548007840B222E02448007840B21EE00F2B03D92248007840B218E02148007840B214E00F2B03D91F48007840B20EE01E48007840B20AE00F2B60
:401C000003D91C48007840B204E01B48007840B200E0002001EB401101FB02F1C90B8AB20D2B0BD8C3F10E0289B211418AB2611E124800EB810101338B7005E0631E0F4932
:401C400001EB83030F219970013C0C4B23F8242010BD0020FFF758FE10BD00BF180100491C010049190100491D0100491A0100491E0100491B0100491F0100490086FF1F31
:401C8000F8B5074600F09CFD06460D4D2B7843F003032B700B4C237843F0030323700A4B1F700320FFF748FE2B7803F0FC032B70237803F0FC032370304600F085FDF8BD96
:401CC000F8460040F9460040925800400022324B1A7101285FD170B53822304B1A70042202331A70062201331A70002401331C7001331C703F2201331A7002331C70013333
:401D00001C7001331C7001250A331D70502203F527631A700A2201331A702C2201331A7001331C70442203331A70482201331A7001331D7002331D70112201331A70192236
:401D400001331A70972201331A705220FFF798FF5822134B1A7001331C70052605331E70022201331A7001331C7001331C70204600F016FA43F233320A4B1A602946304606
:401D800000F032FA2946252000F0B2FA06491D20FFF7DCFD70BD70470086FF1F004E004094580040F487FF1F7D200000F0B583B0284D01272F70284E00247471102000F031
:401DC00001FA102000F082FA07211D20FFF7D2FD0422224B1A7001331C7007331C70204A137843F0180313701E4B1C7003F2F5231C7001331C700A22A3F209331A700133B0
:401E00001C7002331C705B2205331A705E2201331A7004331C701422A3F68C231A70009710234FF4004248F6F0510220FFF7BAFE2B78013B06EB83039A780B4B1A702B7884
:401E4000013B36F82320094B1A802878FFF73EFF03B0F0BDF884FF1F0086FF1F96580040075B0040935800400E4E00400C4E004070B500F0A5FC06462A4B1B782A4B1A7814
:401E800042F001021A701A7842F010021A7010331A7842F001021A701A7842F010021A70224D2B7843F002032B70214C237843F0020323701F4A137843F003031370032084
:401EC000FFF73AFD2B7803F0FD032B70237803F0FD032370184A137843F0060313707A22164B1A70164A137843F0010313701032137843F0010313700F3A137843F00103F9
:401F000013701032137843F0010313704FF000530C4A1360A2F5C0721360304600F054FC70BD00BFF884FF1FAA430040F8460040F946004091580040775800408258004048
:401F4000A143004080E200E008B5084B9B794BB9064BDB7913F0FF0F01D1FFF727FF0122024B9A71FFF784FF08BD00BF0086FF1F024A137843F0010313707047004E00403D
:401F8000024A137803F0FE0313707047004E0040094B1B7913F0FF0F03D0074B5B79DBB203E0064B1B7803F00103012B01D00028EED01846704700BF0086FF1F014E004067
:401FC000154B1B7803F00303012B07D8134B1888023B1B889BB243EA004013E0022B0AD10E4B1888023B1B7843EA00430C4A107843EA002006E00B4B188883B2074A1088F9
:4020000043EA0040084B1B7913F0FF0F02D00022054B5A71704700BF144E0040124E0040114E0040104E00400086FF1F10B5074B9B68C01A01F01AFA0446054B186801F08F
:4020400015FA0146204601F019FB10BD0086FF1FF487FF1F10B5084A137843F004031370FFF786FF0020FFF793FFFFF7A9FF0446FFF786FF204610BD014E0040704700BF78
:40208000024A137843F080031370704776640040014B1870704700BF87640040014B1878704700BF67640040014B1880704700BF4C680040014B188880B270478C68004016
:4020C000014B1880704700BF0C68004008B501E0FFF7F0FFFFF7E2FF10F0080FF8D108BD08B540F60F60FFF7DFFF40F60F60FFF7E7FF00F065FB064A137843F01003137028
:4021000000F062FBFFF7E2FF0120FFF7C1FF08BD9764004008B5054B1B7823B9FFF7E0FF0122024B1A70FFF7ABFF08BD0C86FF1F014B1B685864704708ED00E04001C0B27A
:40214000014B1870704700BF01E400E00222014B1A60704700E100E00222014B1A60704780E100E010B50446FFF7F6FF2046FFF7DFFF0520FFF7E2FFFFF7E8FF10BD00BF73
:4021800010B5002404E02046FEF762FF0134E4B2012CF8D9FF22014B1A7010BDF984FF1F10B50446FFF7ECFF2046FEF743FF014B1C7010BDF984FF1F014B188880B27047CC
:4021C00080400040034B1A7800F0F80010431870704700BF82400040024B187800F00700704700BF8240004070B505460E46FFF7F3FF0446FFF7E0FFA84256D02B4B1B7894
:4022000003F0010294B900B185B938B9284B1D80284A137803F0BF03137070BD254A137843F040031370224B1D8070BD22B3002321490B7001240F310C7004310B700C392C
:402240000B7803F07F030B701A4B1B7813F0080F00D08DB9194B18800721013B1970164B1B7813F0010FFAD110490B7803F0FE030B700021104B19700C4B1B7813F0010FBB
:402280000DD00E4B1D800EB1032200E001220A4B1A70094B1B7813F0010FFAD170BD044B1D8002490B7813430B7070BDA243004080400040824000400140004002400040B1
:4022C000014B188880B2704700410040034B1A7800F0F80010431870704700BF02410040024B187800F00700704700BF0241004070B505460E46FFF7F3FF0446FFF7E0FF54
:40230000A84256D02B4B1B7803F0010294B900B185B938B9284B1D80284A137803F0BF03137070BD254A137843F040031370224B1D8070BD22B3002321490B70012413317F
:402340000C7004390B7008390B7803F07F030B701A4B1B7813F0080F00D08DB9194B18800721013B1970164B1B7813F0010FFAD110490B7803F0FE030B700021104B197042
:402380000C4B1B7813F0010F0DD00E4B1D800EB1032200E001220A4B1A70094B1B7813F0010FFAD170BD044B1D8002490B7813430B7070BDA14300400041004002410040B5
:4023C0000140004002400040014B1B681864704708ED00E04001C0B2014B1870704700BF00E400E00122014B1A60704700E100E00122014B1A60704780E100E010B50446F1
:40240000FFF7F6FF2046FFF7DFFF0720FFF7E2FFFFF7E8FF10BD00BF024A137843F080031370704776650040024A137803F07F031370704776650040014B1870704700BF43
:4024400086650040014B1878704700BF66650040014B1870704700BF26650040014B1878704700BF46650040014B1870704700BF0665004008B501E0FFF7F0FFFFF7E2FF33
:4024800010F0080FF8D108BD08B50220FFF7E0FF0220FFF7E9FF00F093F9064A137843F01003137000F090F9FFF7E4FF0120FFF7C3FF08BD9665004008B5054B1B7823B9FC
:4024C000FFF7E2FF0122024B1A70FFF7A5FF08BD0D86FF1F024A137843F080031370704779640040024A137803F07F031370704779640040014B1870704700BF096400407D
:40250000014B1870704700BF49640040014B1870704700BF29640040014B1870704700BF89640040014B1878704700BF69640040014B1878704700BF5964004008B501E08A
:40254000FFF7F6FFFFF7EEFF10F0100FF8D108BD10B5114A137803F0C00343F0090313700E4C237843F001032370F020FFF7C2FFF020FFF7C5FF7820FFF7C8FF0020FFF702
:40258000CBFF00F01DF9237843F01003237000F01BF9FFF7D3FF10BD796400409964004008B5054B1B7823B9FFF7D2FF0122024B1A70FFF78FFF08BD0E86FF1F014B1B68DD
:4025C0009864704708ED00E04001C0B2014B1870704700BF02E400E00422014B1A60704700E100E00422014B1A60704780E100E010B50446FFF7F6FF2046FFF7DFFF0620EE
:40260000FFF7E2FFFFF7E8FF10BD00BF024A137843F080031370704778640040024A137803F07F031370704778640040014B1870704700BF88640040014B1878704700BF0D
:4026400068640040014B1870704700BF28640040014B1878704700BF48640040014B1870704700BF0864004008B501E0FFF7F0FFFFF7E2FF10F0080FF8D108BD08B51D200B
:40268000FFF7E0FF1D20FFF7E9FF00F099F8064A137843F01003137000F096F8FFF7E4FF0120FFF7C3FF08BD9864004008B5054B1B7823B9FFF7E2FF0122024B1A70FFF791
:4026C000A5FF08BD0F86FF1F024A137843F080031370704777650040024A137803F07F031370704777650040014B1870704700BF07650040014B1870704700BF476500400D
:40270000014B1870704700BF27650040014B1870704700BF87650040014B1878704700BF67650040014B1878704700BF5765004008B501E0FFF7F6FFFFF7EEFF10F0100FD6
:40274000F8D108BD10B5114A137803F0C00343F0090313700E4C237843F0010323706320FFF7C2FF6320FFF7C5FF3220FFF7C8FF0020FFF7CBFF00F023F8237843F0100397
:40278000237000F021F8FFF7D3FF10BD776500409765004008B5054B1B7823B9FFF7D2FF0122024B1A70FFF78FFF08BD1086FF1F0230800803D000BF01380046FCD1704707
:4027C000EFF3108072B6704780F31088704700BF10B500F09DF800F047F910BB012000F025F9072818D102210F4800F0A3F802280AD102E00120FFF79FF80C4B1B7813F0F4
:40280000020FF7D0002409E0084B1B7813F0020FE9D04FF0FF3401E04FF0FF3400F04AF900E00424204610BDF887FF1F2247004010B500F06DF800F017F9D0B900F056F9A5
:402840000446072812D102E00120FFF775F80A4B1B7813F0020FF7D0074B1B7813F0020F04D0054B1B789B0800D1002400F022F900E00424204610BD2247004008B5FFF7E9
:40288000D7FF034610B9FFF7A3FF0346184608BD08B5FFF795FF0F4A137843F0080313701032137843F008031370C8220A4B1A700A4A137843F0100313701032137843F041
:4028C00010031370064B1B7813F0200FFAD0FFF77BFF08BDA043004001470040AC43004000470040054A137843F001031370034B1B7813F0020FFAD0704700BF024700407A
:40290000024A137803F0FE03137070470247004008B5FFF755FF064A137843F0080313701032137843F008031370FFF74DFF08BDA043004070B506460D4600240CE00120B9
:40294000FEF7FAFF064B1B7813F0010FF7D0054B1B7833550134E4B2AC42F3D3204670BD224700402047004030B43E2801D81F2B03D93F2827D90F2B27D8174C247814F0F2
:40298000020F24D0154CB6252570D4252570012525700234247814F0020F1AD10F4C2070C1F300202070C9B22170591EC9B22170002104E0545C094804700131C9B2994246
:4029C000F8D3072006E0012004E0012002E0042000E0092030BC7047224700402047004030B4104C247814F0020F15D00E4CB6252570D8252570052525700234247814F010
:402A0000020F0BD1084C2070080A2070C9B2217022702370072002E0042000E0092030BC704700BF22470040204700400C4B1B7813F0020F0FD00B4BB6221A70E1221A70E8
:402A40000E221A7002331B7813F0020F05D1054B187007207047042070470920704700BF224700402047004010B5FFF7A9FE0F4B1B78A3B901220D4B1A700D4B1B6813F0DC
:402A8000010F0ED00A4A136823F00103136000BF00BF00BF0122054B5A60002402E0042400E00024FFF790FE204610BD1486FF1F0400084008B5FFF783FE0A4B00221A7043
:402AC0005B68012B0AD1084A136843F00103136000BF00BF00BF0022024B5A60FFF774FE08BD00BF1486FF1F04000840074B1B7813F0020F08D0064BB6221A70E0221A702F
:402B00000D221A700720704704207047224700402047004081F0004102E000BF83F0004330B54FEA41044FEA430594EA050F08BF90EA020F1FBF54EA000C55EA020C7FEA24
:402B4000645C7FEA655C00F0E2804FEA5454D4EB5555B8BF6D420CDD2C4480EA020281EA030382EA000083EA010180EA020281EA0303362D88BF30BD11F0004F4FEA013165
:402B80004FF4801C4CEA113102D0404261EB410113F0004F4FEA03334CEA133302D0524263EB430394EA050F00F0A780A4F10104D5F1200E0DDB02FA0EFC22FA05F28018D5
:402BC00041F1000103FA0EF2801843FA05F359410EE0A5F120050EF1200E012A03FA0EFC28BF4CF0020C43FA05F3C01851EBE37101F0004507D54FF0000EDCF1000C7EEBC7
:402C000000006EEB0101B1F5801F1BD3B1F5001F0CD349085FEA30004FEA3C0C04F101044FEA445212F5800F80F09A80BCF1004F08BF5FEA500C50F1000041EB045141EAD9
:402C4000050130BD5FEA4C0C404141EB010111F4801FA4F10104E9D191F0000F04BF01460020B1FA81F308BF2033A3F10B03B3F120020CDA0C3208DD02F1140CC2F10C02E1
:402C800001FA0CF021FA02F10CE002F11402D8BFC2F1200C01FA02F120FA0CFCDCBF41EA0C019040E41AA2BF01EB0451294330BD6FEA04041F3C1CDA0C340EDC04F114040F
:402CC000C4F1200220FA04F001FA02F340EA030021FA04F345EA030130BDC4F10C04C4F1200220FA02F001FA04F340EA0300294630BD21FA04F0294630BD94F0000F83F408
:402D0000801306BF81F480110134013D4EE77FEA645C18BF7FEA655C29D094EA050F08BF90EA020F05D054EA000C04BF1946104630BD91EA030F1EBF0021002030BD5FEA21
:402D4000545C05D14000494128BF41F0004130BD14F580043CBF01F5801130BD01F0004545F0FE4141F470014FF0000030BD7FEA645C1ABF194610467FEA655C1CBF0B4638
:402D8000024650EA013406BF52EA033591EA030F41F4002130BD00BF90F0000F04BF0021704730B54FF4806404F132044FF000054FF0000150E700BF90F0000F04BF002146
:402DC000704730B54FF4806404F1320410F0004548BF40424FF000013EE700BF42004FEAE2014FEA31014FEA02701FBF12F07F4393F07F4F81F06051704792F0000F14BF4F
:402E000093F07F4F704730B54FF4607401F0004521F0004120E700BF50EA010208BF704730B54FF000050AE050EA010208BF704730B511F0004502D5404261EB41014FF462
:402E4000806404F132045FEA915C3FF4DCAE4FF003025FEADC0C18BF03325FEADC0C18BF033202EBDC02C2F1200300FA03FC20FA02F001FA03FE40EA0E0021FA02F1144452
:402E8000C1E600BF70B54FF0FF0C4CF4E06C1CEA11541DBF1CEA135594EA0C0F95EA0C0F00F0DEF82C4481EA030621EA4C5123EA4C5350EA013518BF52EA033541F480114A
:402EC00043F4801338D0A0FB02CE4FF00005E1FB02E506F00042E0FB03E54FF00006E1FB03569CF0000F18BF4EF0010EA4F1FF04B6F5007F64F5407404D25FEA4E0E6D4162
:402F000046EB060642EAC62141EA55514FEAC52040EA5E504FEACE2EB4F1FD0C88BFBCF5E06F1ED8BEF1004F08BF5FEA500E50F1000041EB045170BD06F0004646EA010191
:402F400040EA020081EA0301B4EB5C04C2BFD4EB0C0541EA045170BD41F480114FF0000E013C00F3AB8014F1360FDEBF002001F0004170BDC4F10004203C35DA0C341BDC8A
:402F800004F11404C4F1200500FA05F320FA04F001FA05F240EA020001F0004221F0004110EBD37021FA04F642EB06015EEA430E08BF20EAD37070BDC4F10C04C4F1200587
:402FC00000FA04F320FA05F001FA04F240EA020001F0004110EBD37041F100015EEA430E08BF20EAD37070BDC4F1200500FA05F24EEA020E20FA04F301FA05F243EA0203EF
:4030000021FA04F001F0004121FA04F220EA020000EBD3705EEA430E08BF20EAD37070BD94F0000F0FD101F00046400041EB010111F4801F08BF013CF7D041EA060195F0EC
:40304000000F18BF704703F00046520043EB030313F4801F08BF013DF7D043EA0603704794EA0C0F0CEA135518BF95EA0C0F0CD050EA410618BF52EA4306D1D181EA030163
:4030800001F000414FF0000070BD50EA410606BF1046194652EA430619D094EA0C0F02D150EA013613D195EA0C0F05D152EA03361CBF104619460AD181EA030101F0004157
:4030C00041F0FE4141F470014FF0000070BD41F0FE4141F4780170BD70B54FF0FF0C4CF4E06C1CEA11541DBF1CEA135594EA0C0F95EA0C0F00F0A7F8A4EB050481EA030E7D
:4031000052EA03354FEA013100F088804FEA03334FF0805545EA131343EA12634FEA022245EA111545EA10654FEA00260EF000419D4208BF964244F1FD0404F5407402D215
:403140005B084FEA3202B61A65EB03055B084FEA32024FF480104FF4002CB6EB020E75EB030E22BFB61A754640EA0C005B084FEA3202B6EB020E75EB030E22BFB61A754623
:4031800040EA5C005B084FEA3202B6EB020E75EB030E22BFB61A754640EA9C005B084FEA3202B6EB020E75EB030E22BFB61A754640EADC0055EA060E18D04FEA051545EA44
:4031C00016754FEA06164FEAC30343EA52734FEAC2025FEA1C1CC0D111F4801F0BD141EA00014FF000004FF0004CB6E711F4801F04BF01430020B4F1FD0C88BFBCF5E06F1C
:403200003FF6AFAEB5EB030C04BFB6EB020C5FEA500C50F1000041EB045170BD0EF0004E4EEA113114EB5C04C2BFD4EB0C0541EA045170BD41F480114FF0000E013C90E65E
:4032400045EA060E8DE60CEA135594EA0C0F08BF95EA0C0F3FF43BAF94EA0C0F0AD150EA01347FF434AF95EA0C0F7FF425AF104619462CE795EA0C0F06D152EA03353FF429
:40328000FDAE1046194622E750EA410618BF52EA43067FF4C5AE50EA41047FF40DAF52EA43057FF4EBAE12E74FEA410212F5001215D211D56FF47873B3EB625212D94FEA85
:4032C000C12343F0004343EA505311F0004F23FA02F018BF404270474FF00000704750EA013005D111F0004008BF6FF0004070474FF00000704700BF80F0004002E000BF9A
:4033000081F0004142001FBF5FEA410392EA030F7FEA226C7FEA236C6AD04FEA1262D2EB1363C1BFD218414048404140B8BF5B42192B88BF704710F0004F40F4000020F0BA
:403340007F4018BF404211F0004F41F4000121F07F4118BF494292EA030F3FD0A2F1010241FA03FC10EB0C00C3F1200301FA03F100F0004302D5494260EB4000B0F5000F6E
:4033800013D3B0F1807F06D340084FEA310102F10102FE2A51D2B1F1004F40EBC25008BF20F0010040EA03007047490040EB000010F4000FA2F10102EDD1B0FA80FCACF132
:4033C000080CB2EB0C0200FA0CF0AABF00EBC25052421843BCBFD0401843704792F0000F81F4000106BF80F400000132013BB5E74FEA41037FEA226C18BF7FEA236C21D0A7
:4034000092EA030F04D092F0000F08BF0846704790EA010F1CBF0020704712F07F4F04D1400028BF40F00040704712F100723CBF00F50000704700F0004343F0FE4040F4AA
:40344000000070477FEA226216BF08467FEA23630146420206BF5FEA412390EA010F40F4800070474FF0000304E000BF10F0004348BF40425FEA000C08BF704743F0964314
:4034800001464FF000001CE050EA010208BF70474FF000030AE000BF50EA010208BF704711F0004302D5404261EB41015FEA010C02BF84460146002043F0B64308BFA3F12F
:4034C0008053A3F50003BCFA8CF2083AA3EBC25310DB01FA02FC634400FA02FCC2F12002BCF1004F20FA02F243EB020008BF20F00100704702F1200201FA02FCC2F1200241
:4035000050EA4C0021FA02F243EB020008BF20EADC7070474FF0FF0C1CEAD0521EBF1CEAD15392EA0C0F93EA0C0F6FD01A4480EA010C400218BF5FEA41211ED04FF00063E2
:4035400043EA501043EA5111A0FB01310CF00040B1F5000F3EBF490041EAD3715B0040EA010062F17F02FD2A1DD8B3F1004F40EBC25008BF20F00100704790F0000F0CF0FC
:40358000004C08BF49024CEA502040EA51207F3AC2BFD2F1FF0340EAC250704740F400004FF00003013A5DDC12F1190FDCBF00F000407047C2F10002410021FA02F1C2F12C
:4035C000200200FA02FC5FEA310040F1000053EA4C0308BF20EADC70704792F0000F00F0004C02BF400010F4000F013AF9D040EA0C0093F0000F01F0004C02BF490011F4AD
:40360000000F013BF9D041EA0C018FE70CEAD15392EA0C0F18BF93EA0C0F0AD030F0004C18BF31F0004CD8D180EA010000F00040704790F0000F17BF90F0004F084691F020
:40364000000F91F0004F14D092EA0C0F01D142020FD193EA0C0F03D14B0218BF084608D180EA010000F0004040F0FE4040F40000704740F0FE4040F4400070474FF0FF0C6C
:403680001CEAD0521EBF1CEAD15392EA0C0F93EA0C0F69D0A2EB030280EA010C49024FEA402037D04FF0805343EA111143EA10130CF000408B4238BF5B0042F17D024FF47E
:4036C000000C8B4224BF5B1A40EA0C00B3EB510F24BFA3EB510340EA5C00B3EB910F24BFA3EB910340EA9C00B3EBD10F24BFA3EBD10340EADC001B0118BF5FEA1C1CE0D123
:40370000FD2A3FF650AF8B4240EBC25008BF20F0010070470CF0004C4CEA50207F32C2BFD2F1FF0340EAC250704740F400004FF00003013A37E792F0000F00F0004C02BF60
:40374000400010F4000F013AF9D040EA0C0093F0000F01F0004C02BF490011F4000F013BF9D041EA0C0195E70CEAD15392EA0C0F08D142027FF47DAF93EA0C0F7FF470AF7F
:40378000084676E793EA0C0F04D14B023FF44CAF08466EE730F0004C18BF31F0004CCAD130F000427FF45CAF31F000437FF43CAF5FE700BF014B1868704700BF5C85FF1FA0
:4037C0000E4B70B51E460E4C0025E41AA410A54204D056F8253098470135F8E700F04EFF084B094C1E46E41AA4100025A54204D056F8253098470135F8E770BD88460000F7
:4038000088460000884600009046000010B5431E0A44914204D011F8014B03F8014FF8E710BD03460244934202D003F8011BFAE7704700000EB400B54FF402719CB0ADF8AC
:4038400014106FF00041049107914FF6FF711DAB02900690084853F8042BADF81610006802A9019300F06CF8029B00221A701CB05DF804EB03B070475C85FF1F034613F80C
:40388000012B002AFBD1181A013870472DE9F0478E6882469E420C46914698463ED88A8912F4906F3AD02568096902236F1A656905EB450595FBF3F57B1C43449D4238BF79
:4038C0001D4653050FD5294600F040FB064698B13A462169FFF79AFFA38923F4906343F08003A38113E02A4600F08EFB064670B92169504600F0DEFA0C23CAF80030A389CB
:403900004FF0FF3043F04003A381BDE8F08726613E44266046466561ED1BA560464528BF464649463246206800F0A8FAA36800209B1BA36023681E442660BDE8F0870000E3
:403940002DE9F04F9DB003938B8980461C060D4616460DD50B695BB9402100F0F7FA2860286118B90C23C8F80030CDE040236B610023099320238DF82930DFF89CB1302384
:403980008DF82A3037463C4614F8013B1BB9B7EB060910D003E0252BF9D02746F3E74B46324629464046FFF771FF013000F0A780099B4B4409933B78002B00F0A0800023AD
:4039C0004FF0FF3204930793059206938DF853301A930126052221784E4800F041FA671C049B38B14B4A3C46801A06FA00F018430490EFE7D90644BF20228DF853201A07EB
:403A000044BF2B228DF8532022782A2A03D0079A00210A200BE0039A111D12680391002A10DA524243F00200079204900BE027463B780134303B092B03D800FB02320121B8
:403A4000F5E701B107923B782E2B1ED17B782A2B0AD1039B02371A1D1B680392002BB8BF4FF0FF33059310E0002319460593781C0A2407463A780130303A092A03D804FBBD
:403A800001210123F5E703B1059103223978224800F0E6F940B14023CBEB000003FA00F0049B013718430490397806221B487E1C8DF8281000F0D4F988B1194B33B9039B57
:403AC000073323F007030833039314E003AB00932A46144B04A94046AFF3008007E003AB00932A460F4B04A9404600F093F8B0F1FF3F824603D0099B5344099342E7AB89F7
:403B00005B0601D4099801E04FF0FF301DB0BDE8F08F00BF464600004C46000050460000000000008D3800002DE9F04791461F460A698B6806469342B8BF1346C9F8003065
:403B400091F843200C46DDF8208012B10133C9F800302368990642BFD9F800300233C9F80030256815F0060510D104F1190A07E00123524639463046C04701301AD00135D2
:403B8000E368D9F800209B1A9D42F1DB94F843302268003318BF012392060FD5E118302081F843005A1C94F845102244023382F8431003E04FF0FF30BDE8F08704F14302CB
:403BC00039463046C0470130F4D02268D9F80050E36802F00602042A08BF5D1B2269A3680CBF25EAE57500259342C4BF9B1AED184FF000091A344D4509D00123224639466A
:403C00003046C0470130D5D009F10109F3E70020BDE8F0872DE9F04317460A7E85B06E2A984606460C460C9B01F1430E00F0AE8011D8632A22D009D8002A00F0BB80582A78
:403C400040F0CA8081F84520834955E0642A1ED0692A1CD0C0E0732A00F0B08009D86F2A2ED0702A40F0B8800A6842F020020A603EE0752A24D0782A3AD0ADE01A6801F18B
:403C80004205111D1960136884F84230A8E021681A6811F0800F02D0111D196008E011F0400F02F10401196002D0B2F9003000E01368002B3CDA2D225B4284F8432037E03D
:403CC00021681A6811F0800F02D0111D196007E011F0400F02F10401196001D0138800E01368227E5C496F2A14BF0A2208221BE078225A4984F845202268186812F0800F86
:403D000000F104051D6003D1550601D5038800E00368D00744BF42F0200222601BB9226822F0200222601022002084F8430001E049490A226568002DA56008DB206820F043
:403D4000040020602BB9002D7DD175460CE0002B79D07546B3FBF2F002FB1033CB5C05F8013D03460028F5D1082A0BD12368DA0708D5236962689A42DEBF302305F8013C6E
:403D800005F1FF35C5EB0E0323612EE008681A6810F0800F496903D0101D1860136808E010F0400F02F104001860136801D0198000E0196000232361754616E01A68111D74
:403DC0001960156800216268284600F049F808B1401B6060636804E004F1420584F8422001232361002384F84330CDF800803B4603AA21463046FFF797FE013002D14FF0CE
:403E0000FF3026E023692A4639463046C0470130F5D023689B0710D5002504F1190907E001234A4639463046C0470130E7D00135E368039A9B1A9D42F2DBE068039B984253
:403E4000B8BF184605E00B7804F1420584F842308AE705B0BDE8F083574600006846000010B5C9B202449042034605D01C7801308C42F8D1184610BD002010BD884210B5D9
:403E800001EB020301D8421E0BE09842FBD28118D21AD34204D013F8014D01F8014DF8E710BD994204D011F8014B02F8014FF8E710BD000038B50546002944D051F8043C94
:403EC0000C1F002BB8BFE41800F0D4F81E4A1368114613B96360146030E0A3420DD92268A018834201BF18685B681218226063600C6023E0A24203D813465A68002AF9D16F
:403F000018681918A1420BD12168014458188242196013D110685268014419605A600DE002D90C232B6009E021686018824201BF106852680918216062605C602846BDE8B3
:403F4000384000F098B838BD2086FF1F70B5CD1C25F0030508350C2D38BF0C25002D064601DBA94202D90C23336046E000F082F8234B1C681A462146A1B10B685B1B0ED4C4
:403F80000B2B03D90B60CC18CD501EE08C420BBF63684B681360636018BF0C4615E00C464968E9E7174C23681BB9304600F052F820602946304600F04DF8431C18D0C41C15
:403FC00024F00304A0420DD12560304600F053F804F10B00231D20F00700C31A0ED05A42E25070BD211A304600F034F80130EBD10C233360304600F03EF8002070BD00BF7F
:404000002086FF1F1C86FF1FF8B5074615460E4621B91146BDE8F840FFF798BF1AB9FFF749FF2846F8BD00F027F885420ED929463846FFF78BFF044650B131462A46FFF772
:40404000E5FB31463846FFF735FF01E03046F8BD2046F8BD38B5064C0023054608462360FDF7A2F8431C02D1236803B12B6038BDFC87FF1F7047704751F8040C0028BEBF10
:40408000091851F8043CC018043870470000000041545441434B00004445564943450000486541525400000053544152540000004845410048523A25640000004261743A85
:4040C000256C642525000000476F202424240D0A000000000021007F2200070000AED580A83FD300408D142000A1C8DA1281CFD9F1DB40A4A6AF000000000000003E5B4F36
:404100005B3E3E6B4F6B3E1C3E7C3E1C183C7E3C181C577D571C1C5E7F5E1C00183C1800FFE7C3E7FF0018241800FFE7DBE7FF30483A060E2629792926407F050507407FB7
:4041400005253F5A3CE73C5A7F3E1C1C08081C1C3E7F14227F22145F5F005F5F06097F017F006689956A606060606094A2FFA29408047E040810207E201008082A1C080841
:404180001C2A08081E101010100C1E0C1E0C30383E3830060E3E0E06000000000000005F00000007000700147F147F14242A7F2A122313086462364956205000080703006C
:4041C000001C2241000041221C002A1C7F1C2A08083E080800807030000808080808000060600020100804023E5149453E00427F400072494949462141494D331814127F3B
:404200001027454545393C4A49493141211109073649494936464949291E0000140000004034000000081422411414141414004122140802015909063E415D594E7C121196
:40424000127C7F494949363E414141227F4141413E7F494949417F090909013E414151737F0808087F00417F41002040413F017F081422417F404040407F021C027F7F04AD
:4042800008107F3E4141413E7F090909063E4151215E7F09192946264949493203017F01033F4040403F1F2040201F3F4038403F631408146303047804036159494D43002E
:4042C0007F4141410204081020004141417F04020102044040404040000307080020545478407F284444383844444428384444287F385454541800087E090218A4A49C78D2
:404300007F0804047800447D40002040403D007F1028440000417F40007C047804787C080404783844444438FC1824241818242418FC7C08040408485454542404043F447A
:40434000243C4040207C1C2040201C3C4030403C44281028444C9090907C4464544C4400083641000000770000004136080002010204023C2623263C1EA1A161123A404001
:40438000207A385454555921555579412254547842215554784020545579400C1E5272123955555559395454545939555454580000457C410002457D420001457C407D1282
:4043C00011127DF0282528F07C545545002054547C547C0A097F4932494949323A4444443A324A4848303A4141217A3A42402078009DA0A07D3D4242423D3D4040403D3CF9
:4044000024FF2424487E4943662B2FFC2F2BFF0929F620C0887E090320545479410000447D413048484A32384040227A007A0A0A727D0D19317D2629292F28262929292695
:4044400030484D4020380808080808080808382F10C8ACBA2F102834FA00007B000008142A142222142A1408AA005500AAAA55AA55AA000000FF00101010FF00141414FF38
:40448000001010FF00FF1010F010F0141414FC001414F700FF0000FF00FF1414F404FC141417101F10101F101F1414141F00101010F0000000001F101010101F1010101049
:4044C000F010000000FF101010101010101010FF10000000FF140000FF00FF00001F10170000FC04F414141710171414F404F40000FF00F714141414141414F700F71414C1
:4045000014171410101F101F141414F4141010F010F000001F101F0000001F14000000FC140000F010F01010FF10FF141414FF141010101F00000000F010FFFFFFFFFFF042
:40454000F0F0F0F0FFFFFF0000000000FFFF0F0F0F0F0F3844443844FC4A4A4A347E02020606027E027E0263554941633844443C04407E201E2006027E020299A5E7A599AD
:404580001C2A492A1C4C7201724C304A4D4D303048784830BC625A463D3E494949007E0101017E2A2A2A2A2A44445F444440514A444040444A51400000FF0103E080FF0089
:4045C0000008086B6B083612362436060F090F06000018180000001010003040FF0101001F01011E00191D1712003C3C3C3C000000000000035B00402443004040000000EE
:40460000C8490040190020510040500000000140001000140140800400190140000300400140000A004C014000020050014020006052004040060048060080180140480610
:40464000004880004300232D302B2000686C4C006566674546470030313233343536373839414243444546003031323334353637383961626364656600000000F8B500BFD0
:40468000F8BC08BC9E4670474D00000025120000F8B500BFF8BC08BC9E46704729000000B0460000C880FF1F98040000A002000000000000A0400000A84000009040000089
:4046C000984000006400000040000000000000000000000000000000000000000000000000000000000000000000000000000000000000000000000000000000000000003E
:404700000000000000000000000000000000000000000000000000000000000000000000000000000000000000000000000000000000000000000000000000000000000079
:404740000000000000000000000000000000000000000000000000000000000000000000000000000000000000000000000000000000000000000000000000000000000039
:4047800000000000000000000000000000000000000000000000000000000000000000000000000000000000000000000000000000000000000000000000000000000000F9
:4047C00000000000000000000000000000000000000000000000000000000000000000000000000000000000000000000000000000000000000000000000000000000000B9
:404800000000000000000000000000000000000000000000000000000000000000000000000000000000000000000000000000000000000000000000000000000000000078
:404840000000000000000000000000000000000000000000000000000000000000000000000000000000000000000000000000000000000000000000000000000000000038
:4048800000000000000000000000000000000000000000000000000000000000000000000000000000000000000000000000000000000000000000000000000000000000F8
:4048C00000000000000000000000000000000000000000000000000000000000000000000000000000000000000000000000000000000000000000000000000000000000B8
:404900000000000000000000000000000000000000000000000000000000000000000000000000000000000000000000000000000000000000000000000000000000000077
:404940000000000000000000000000000000000000000000000000000000000000000000000000000000000000000000000000000000000000000000000000000000000037
:4049800000000000000000000000000000000000000000000000000000000000000000000000000000000000000000000000000000000000000000000000000000000000F7
:4049C00000000000000000000000000000000000000000000000000000000000000000000000000000000000000000000000000000000000000000000000000000000000B7
:404A00000000000000000000000000000000000000000000000000000000000000000000000000000000000000000000000000000000000000000000000000000000000076
:404A40000000000000000000000000000000000000000000000000000000000000000000000000000000000000000000000000000000000000000000000000000000000036
:404A800000000000000000000000000000000000000000000000000000000000000000000000000000000000000000000000000000000000000000000000000000000000F6
:404AC0000000000000000000000000000088FF1F0000E02EC05D00001800000000366E0101FF00000000000000000000000000000000000000000000000000000000000028
:404B000000000000444600000000000000000000000000000000000000000000000000000000000000000000000000000000000000000000000000000000000000000000EB
:404B400000000000FC84FF1F000000000000000000000000000000000000000000000000000000000000000000000000000000000000000000000000000000000000000097
:404B800000000000000000000000000000000000000000000000000000000000000000000000000000000000000000000000000000000000000000000000000000000000F5
:404BC00000000000000000000000000000000000000000000000000000000000000000000000000000000000000000000000000000000000000000000000000000000000B5
:404C00000000000000000000000000000000000000000000000000000000000000000000000000000000000000000000000000000000000000000000000000000000000074
:404C40000000000000000000000000000000000000000000000000000000000000000000000000000000000000000000000000000000000000000000000000000000000034
:020000040003F7
:0200000480007A
:4000000002520040036400400565004004030140010501403C0601401C0701405608014032090140020D0140051501404B1601403017014009180140401901406F1A0140AF
:40004000471B0140064001400C41014006420140094301400544014003450140034601400247014010480140124901400B4C01400D4D014006500140035101400002790874
:40008000870D880D890D860D870D883889728A0F8B10E680EA01EE02971023012F013101404149FF4AFF4BFF4F015018528059045A045B045C405D445F016040624064407A
:4000C0006540668068806A806C806E8082018F019B019E01B301B601BE40C041C5ECC602C807C9FFCAFFCBFFCD83CE03CF01D018D401D804D904DA04DB04DC30DD44DF013D
:40010000E040E240E440E540E680E880EA80EC80EE80024009801940231027402E802F80322039804180428045804640490551805380594576C09710C008C201CA90CC040C
:40014000CE08D099D60BE202E8040E0212011E022E013001320236013E05404545EC4602480749FF4AFF4BFF4F0150185280540158045A045B045C065D665F016040624057
:4001800064406540668068806A806C806E8085088A048B0E8E018F01900196019A029B02A001A604AA02B004B102B202B304B501B601B708B880BA20BE05C020C106C5D02A
:4001C000C610C702C81AC9FFCAFFCBFFCDA0CF04D018D280D405D804D904DA04DB04DC12DD11DF01E040E2C0E440E540E6C0E8C0EAC0ECC0EEC000400208048009200A50F0
:400200000E010F801008110212201780180419041A011B021E801F44212422422F033120382039083B4041204680480849014D044F815018574059055A805D045E805F01C2
:400240007340768077808602C083C29EC48ECC04CE0ED084D214D6DBE804EA01EE02AF20E008E401EA01EE0803010E0123012E01300133013E01404145EC4720482349FFB0
:400280004AFF4BFF4F01501852805401580459045A045B045C505D555F016040624064406540668068806A806C806E80820186028F019602A302AD02B001B402B501B7021E
:4002C000B880BE50C020C106C5D0C621C80EC9FFCAFFCBFFCDA0CF04D018D280D405D804D904DA04DB04DC33DD33DF01E040E2C0E440E540E6C0E8C0EAC0ECC0EEC002201D
:40030000038006020B20178019401A041B011E802120226027202B812E023B403C024120468249014B204D044F0151405390560259015A845D045E805F0173407401768060
:40034000778089409580A620AB40C08CC204C480CA89CE88D094D204D6DBE224EA08190135013F105418560459045B045D205F0100660308081009810A140B801080132494
:40038000180919111A102040220823022704281029102A802B8031A0320233083610384039023A203B044005413042C04A284B80504059015F02674A69547180722073248E
:4003C0008B408E129240930A94C09610A080A501A628AF40B484B640C00FC20FC40ECA0FCC2FCE0FD00DD20CD681D8B0E080E22400400220040A050B06140820090B0AC0B5
:400400000D080E081013120C141315021604170118801A201E15200321012214231224E0250428E0300F3110330334E03508361037043A023E403F404041410245EE460CEC
:40044000470B481749FF4AFF4BFF4EF04F44500C5401580459045A045B045C225D225F0166C06A406B0281808313860388DC8A22901092AC930C940C952C967197439E20B1
:40048000A009A2D0A414A571A70EA810AA40AB08AD71AF06B21FB330B4E0B50FB7C0B988BA20BB20BF04C002C704C9FFCA07CBFFCC40CD20CEF0CF05D008D804D904DA0450
:4004C000DC22DD02DF01E040E1A8E240E320000601200301050407080A490B300E400F121114124015081604170119A01A441B021D041F3020202199220424042729290402
:400500002B802F2A3108370939543E013F0242014322472049014A104F02514452405604570859815A105B0481408210858088018B809154952296049B04A411A610A78057
:40054000B404B501C06FC2BFC47ECA73CCC2CE8ED02DD60FE008E403EA01EE083002324037843B40CCF0CE10301056208A2096809F80A402AB04AF40CC10D440EA80EE408D
:400580003E1096809C109F80A402CE208602940496909C109F80A402A804E240E820130216807F04C40CDE019708AA80AF0247089708D0019708AB082404520282208810CD
:4005C000940496109C109F80A202AA40AC02C820D480E220EA10EE8012201640722075028220864099029A20AA10AD02AF80C430DC80DE20E010E480EAC0EE10108013201D
:4006000014207B107F4080808B049708C40EDE03E0011040740483108404874088409780A710AB20AC20C408DE04E201005E0A180C46102C1A281C0400FF010F03C00000D0
:4006400082800000430000000100800400082300021880001C3C23C2331C0CE11F802000030040E3081000003F44000004C000000CE7001800FF0000101F2C380F00C0C002
:40068000000028020000410052040600010C0E0005FFFFFF62A0F0410C000000000002130404040422220001000000000000400200103010001010120000000000000000E9
:4006C000000000000000000000020200020080008300708083008300000000000038380008000000000B0B000000000025001801000000000000000000000000000000002F
:4007000000000000000000000000000000000000000000000000000000000000000000000000000000000000000000000000000000000000000000000000000000000000B9
:400740000000000000000000000000000000000000000000000000000000000000000000000000000000000000000000000000000000000000000000000000000000000079
:400780000000000000000000000000000000000000000000000000000000000000000000000000000000000000000000000000000000000000000000000000000000000039
:4007C00000000000000000000000000000000000000000000000000000000000000000000000000000000000000000000000000000000000000000000000000000000000F9
:0200000490006A
:0400000000004005B7
:0200000490105A
:04000000BC90ACAF55
:0200000490303A
:02000000403D81
:0200000490402A
:4000000000000000000000000000000000000000000000000000000000000000000000000000000000000000000000000000000000000000000000000000000000000000C0
:400040000000000000000000000000000000000000000000000000000000000000000000000000000000000000000000000000000000000000000000000000000000000080
:400080000000000000000000000000000000000000000000000000000000000000000000000000000000000000000000000000000000000000000000000000000000000040
:4000C0000000000000000000000000000000000000000000000000000000000000000000000000000000000000000000000000000000000000000000000000000000000000
:0200000490501A
:0C00000000012E16106900012E3250A6DF
:00000001FF